{
  "contractName": "apitoken",
  "abi": [
    {
      "anonymous": false,
      "inputs": [
        {
          "indexed": false,
          "internalType": "address",
          "name": "_Addr",
          "type": "address"
        },
        {
          "indexed": false,
          "internalType": "bytes32",
          "name": "_hashvalue",
          "type": "bytes32"
        }
      ],
      "name": "listServicesStored",
      "type": "event"
    },
    {
      "anonymous": false,
      "inputs": [
        {
          "indexed": false,
          "internalType": "address",
          "name": "_Addr",
          "type": "address"
        },
        {
          "indexed": false,
          "internalType": "bytes32",
          "name": "_utoken",
          "type": "bytes32"
        }
      ],
      "name": "utokenStored",
      "type": "event"
    },
    {
      "inputs": [
        {
          "internalType": "bytes32",
          "name": "_listServicesHash",
          "type": "bytes32"
        }
      ],
      "name": "StorelistServicesHash",
      "outputs": [],
      "stateMutability": "nonpayable",
      "type": "function"
    },
    {
      "inputs": [
        {
          "internalType": "bytes32",
          "name": "_utoken",
          "type": "bytes32"
        }
      ],
      "name": "StoreUtoken",
      "outputs": [],
      "stateMutability": "nonpayable",
      "type": "function"
    },
    {
      "inputs": [
        {
          "internalType": "address",
          "name": "_addr",
          "type": "address"
        }
      ],
      "name": "getUtoken",
      "outputs": [
        {
          "internalType": "bytes32",
          "name": "",
          "type": "bytes32"
        }
      ],
      "stateMutability": "view",
      "type": "function",
      "constant": true
    }
  ],
  "bytecode": "0x608060405234801561001057600080fd5b50610388806100206000396000f3fe608060405234801561001057600080fd5b50600436106100415760003560e01c80632d8e3fb11461004657806396a16e0414610076578063acb0e90f14610092575b600080fd5b610060600480360381019061005b9190610260565b6100ae565b60405161006d91906102a6565b60405180910390f35b610090600480360381019061008b91906102ed565b6100f9565b005b6100ac60048036038101906100a791906102ed565b61017b565b005b60008060008373ffffffffffffffffffffffffffffffffffffffff1673ffffffffffffffffffffffffffffffffffffffff168152602001908152602001600020600101549050919050565b806000803373ffffffffffffffffffffffffffffffffffffffff1673ffffffffffffffffffffffffffffffffffffffff168152602001908152602001600020600101819055507f4d0c08716c19da17bae402f85652debedce8d1308a9fbda06a611637857b1ab53382604051610170929190610329565b60405180910390a150565b806000803373ffffffffffffffffffffffffffffffffffffffff1673ffffffffffffffffffffffffffffffffffffffff168152602001908152602001600020600001819055507f41e7446598ec09a1578b4da4b9318251aba0ab34dbb91c275e4c4eaa45053bb033826040516101f2929190610329565b60405180910390a150565b600080fd5b600073ffffffffffffffffffffffffffffffffffffffff82169050919050565b600061022d82610202565b9050919050565b61023d81610222565b811461024857600080fd5b50565b60008135905061025a81610234565b92915050565b600060208284031215610276576102756101fd565b5b60006102848482850161024b565b91505092915050565b6000819050919050565b6102a08161028d565b82525050565b60006020820190506102bb6000830184610297565b92915050565b6102ca8161028d565b81146102d557600080fd5b50565b6000813590506102e7816102c1565b92915050565b600060208284031215610303576103026101fd565b5b6000610311848285016102d8565b91505092915050565b61032381610222565b82525050565b600060408201905061033e600083018561031a565b61034b6020830184610297565b939250505056fea2646970667358221220a27565b7ea4d4011c39f1f3120d1b159b8c2dd0e58514262d80c17823d0ba29764736f6c634300080a0033",
  "immutableReferences": {},
  "source": "// SPDX-License-Identifier: MIT\npragma solidity >=0.4.22 <0.9.0;\n\ncontract apitoken{\n    struct user {\n        bytes32 listServicesHash; //store list of services data hash\n        bytes32 Utoken; //store user token\n    }\n\n    mapping (address => user) Users;\n\n    event listServicesStored(address _Addr, bytes32 _hashvalue);\n    event utokenStored(address _Addr, bytes32 _utoken);\n\n    function StorelistServicesHash(bytes32 _listServicesHash) public {\n        Users[msg.sender].listServicesHash = _listServicesHash;\n\n        emit listServicesStored(msg.sender, _listServicesHash);\n    }\n\n    function StoreUtoken(bytes32 _utoken) public {\n        Users[msg.sender].Utoken = _utoken;\n\n        emit utokenStored(msg.sender, _utoken);\n    }\n\n    function getUtoken(address _addr) public view returns(bytes32) {\n        return Users[_addr].Utoken;\n    }\n}",
  "sourcePath": "/home/lizz/MyProjects/di-architecture/contracts/apitoken.sol",
  "compiler": {
    "name": "solc",
    "version": "0.8.10+commit.fc410830.Emscripten.clang"
  },
  "schemaVersion": "3.4.3",
  "updatedAt": "2022-01-07T11:50:19.642Z",
  "networkType": "ethereum",
  "devdoc": {
    "kind": "dev",
    "methods": {},
    "version": 1
  },
  "userdoc": {
    "kind": "user",
    "methods": {},
    "version": 1
  }
}