{
  "contractName": "idma",
  "abi": [
    {
      "anonymous": false,
      "inputs": [
        {
          "indexed": false,
          "internalType": "address",
          "name": "_Addr",
          "type": "address"
        },
        {
          "indexed": false,
          "internalType": "bytes32",
          "name": "_hashvalue",
          "type": "bytes32"
        }
      ],
      "name": "loginDataStored",
      "type": "event"
    },
    {
      "anonymous": false,
      "inputs": [
        {
          "indexed": false,
          "internalType": "address",
          "name": "_Addr",
          "type": "address"
        },
        {
          "indexed": false,
          "internalType": "bytes32",
          "name": "_hashvalue",
          "type": "bytes32"
        }
      ],
      "name": "registrationDataStored",
      "type": "event"
    },
    {
      "anonymous": false,
      "inputs": [
        {
          "indexed": false,
          "internalType": "address",
          "name": "_Addr",
          "type": "address"
        },
        {
          "indexed": false,
          "internalType": "bytes32",
          "name": "_ucred",
          "type": "bytes32"
        }
      ],
      "name": "ucredStored",
      "type": "event"
    },
    {
      "inputs": [
        {
          "internalType": "bytes32",
          "name": "_regHash",
          "type": "bytes32"
        }
      ],
      "name": "StoreRegData",
      "outputs": [],
      "stateMutability": "nonpayable",
      "type": "function"
    },
    {
      "inputs": [
        {
          "internalType": "bytes32",
          "name": "_ucred",
          "type": "bytes32"
        }
      ],
      "name": "StoreUcred",
      "outputs": [],
      "stateMutability": "nonpayable",
      "type": "function"
    },
    {
      "inputs": [
        {
          "internalType": "bytes32",
          "name": "_loginHash",
          "type": "bytes32"
        }
      ],
      "name": "StoreLoginData",
      "outputs": [],
      "stateMutability": "nonpayable",
      "type": "function"
    },
    {
      "inputs": [
        {
          "internalType": "address",
          "name": "_addr",
          "type": "address"
        }
      ],
      "name": "getUcred",
      "outputs": [
        {
          "internalType": "bytes32",
          "name": "",
          "type": "bytes32"
        }
      ],
      "stateMutability": "view",
      "type": "function",
      "constant": true
    }
  ],
  "bytecode": "0x608060405234801561001057600080fd5b50610453806100206000396000f3fe608060405234801561001057600080fd5b506004361061004c5760003560e01c806315846d06146100515780639aac265714610081578063ad4ac9f61461009d578063cca1746e146100b9575b600080fd5b61006b6004803603810190610066919061032b565b6100d5565b6040516100789190610371565b60405180910390f35b61009b600480360381019061009691906103b8565b610120565b005b6100b760048036038101906100b291906103b8565b6101c4565b005b6100d360048036038101906100ce91906103b8565b610246565b005b60008060008373ffffffffffffffffffffffffffffffffffffffff1673ffffffffffffffffffffffffffffffffffffffff168152602001908152602001600020600101549050919050565b6000803373ffffffffffffffffffffffffffffffffffffffff1673ffffffffffffffffffffffffffffffffffffffff1681526020019081526020016000206002018190806001815401808255809150506001900390600052602060002001600090919091909150557f86aba68b6d956cc066bb5aeef82a89dd24c9750f156ea99487bc3746c02e41ea33826040516101b99291906103f4565b60405180910390a150565b806000803373ffffffffffffffffffffffffffffffffffffffff1673ffffffffffffffffffffffffffffffffffffffff168152602001908152602001600020600001819055507f99327a7ab6ccd3c95e1b9d881a93256d9e6b1b859ca0876f8e48848df6b3e8e1338260405161023b9291906103f4565b60405180910390a150565b806000803373ffffffffffffffffffffffffffffffffffffffff1673ffffffffffffffffffffffffffffffffffffffff168152602001908152602001600020600101819055507fcb3f1293913fdb148804094e7965fb9955b9df640b4f82eaedc78afee6378b7533826040516102bd9291906103f4565b60405180910390a150565b600080fd5b600073ffffffffffffffffffffffffffffffffffffffff82169050919050565b60006102f8826102cd565b9050919050565b610308816102ed565b811461031357600080fd5b50565b600081359050610325816102ff565b92915050565b600060208284031215610341576103406102c8565b5b600061034f84828501610316565b91505092915050565b6000819050919050565b61036b81610358565b82525050565b60006020820190506103866000830184610362565b92915050565b61039581610358565b81146103a057600080fd5b50565b6000813590506103b28161038c565b92915050565b6000602082840312156103ce576103cd6102c8565b5b60006103dc848285016103a3565b91505092915050565b6103ee816102ed565b82525050565b600060408201905061040960008301856103e5565b6104166020830184610362565b939250505056fea26469706673582212204537fb6d4dc8d89cc456bae2e973b3a04df26cd9c43ce99c5fa7fb1adde8ad4d64736f6c634300080a0033",
  "immutableReferences": {},
  "source": "// SPDX-License-Identifier: MIT\npragma solidity >=0.4.22 <0.9.0;\n\ncontract idma{\n    struct user {\n        bytes32 regHash; //store registration data hash\n        bytes32 Ucred; //store user credentials\n        bytes32[] loginHash;\n    }\n\n    mapping (address => user) Users;\n\n    event registrationDataStored(address _Addr, bytes32 _hashvalue);\n    event ucredStored(address _Addr, bytes32 _ucred);\n    event loginDataStored(address _Addr, bytes32 _hashvalue);\n\n    function StoreRegData(bytes32 _regHash) public {\n        Users[msg.sender].regHash = _regHash;\n\n        emit registrationDataStored(msg.sender, _regHash);\n    }\n\n    function StoreUcred(bytes32 _ucred) public {\n        Users[msg.sender].Ucred = _ucred;\n\n        emit ucredStored(msg.sender, _ucred);\n    }\n\n    function StoreLoginData(bytes32 _loginHash) public {\n        Users[msg.sender].loginHash.push(_loginHash);\n\n        emit loginDataStored(msg.sender, _loginHash);\n    }\n\n    function getUcred(address _addr) public view returns(bytes32) {\n        return Users[_addr].Ucred;\n    }\n}",
  "sourcePath": "/home/lizz/MyProjects/di-architecture/contracts/idma.sol",
  "compiler": {
    "name": "solc",
    "version": "0.8.10+commit.fc410830.Emscripten.clang"
  },
  "schemaVersion": "3.4.3",
  "updatedAt": "2022-01-07T11:50:19.626Z",
  "networkType": "ethereum",
  "devdoc": {
    "kind": "dev",
    "methods": {},
    "version": 1
  },
  "userdoc": {
    "kind": "user",
    "methods": {},
    "version": 1
  }
}