{
  "contractName": "im",
  "abi": [
    {
      "anonymous": false,
      "inputs": [
        {
          "indexed": false,
          "internalType": "address",
          "name": "_Addr",
          "type": "address"
        },
        {
          "indexed": false,
          "internalType": "bytes32",
          "name": "_msghash",
          "type": "bytes32"
        },
        {
          "indexed": false,
          "internalType": "bytes32",
          "name": "_mdipfshash",
          "type": "bytes32"
        }
      ],
      "name": "MdataHashStored",
      "type": "event"
    },
    {
      "anonymous": false,
      "inputs": [
        {
          "indexed": false,
          "internalType": "address",
          "name": "_Addr",
          "type": "address"
        },
        {
          "indexed": false,
          "internalType": "bytes32",
          "name": "_msghash",
          "type": "bytes32"
        },
        {
          "indexed": false,
          "internalType": "bytes32",
          "name": "_tdipfshash",
          "type": "bytes32"
        }
      ],
      "name": "TdataHashStored",
      "type": "event"
    },
    {
      "inputs": [
        {
          "internalType": "bytes32",
          "name": "_messageTdataHash",
          "type": "bytes32"
        },
        {
          "internalType": "bytes32",
          "name": "_IPFStdataHash",
          "type": "bytes32"
        }
      ],
      "name": "StoreTdataHash",
      "outputs": [],
      "stateMutability": "nonpayable",
      "type": "function"
    },
    {
      "inputs": [
        {
          "internalType": "bytes32",
          "name": "_messageMdataHash",
          "type": "bytes32"
        },
        {
          "internalType": "bytes32",
          "name": "_IPFSmdataHash",
          "type": "bytes32"
        }
      ],
      "name": "StoreMdataHash",
      "outputs": [],
      "stateMutability": "nonpayable",
      "type": "function"
    },
    {
      "inputs": [
        {
          "internalType": "bytes32",
          "name": "_IPFStdataHash",
          "type": "bytes32"
        }
      ],
      "name": "checkIPFStdataHash",
      "outputs": [
        {
          "internalType": "bool",
          "name": "",
          "type": "bool"
        }
      ],
      "stateMutability": "view",
      "type": "function",
      "constant": true
    }
  ],
  "bytecode": "0x608060405234801561001057600080fd5b506105f9806100206000396000f3fe608060405234801561001057600080fd5b50600436106100415760003560e01c806346680a2d1461004657806387d6e83b146100625780638c0e5cb81461007e575b600080fd5b610060600480360381019061005b91906103e8565b6100ae565b005b61007c600480360381019061007791906103e8565b6101bd565b005b61009860048036038101906100939190610428565b6102cc565b6040516100a59190610470565b60405180910390f35b6000803373ffffffffffffffffffffffffffffffffffffffff1673ffffffffffffffffffffffffffffffffffffffff1681526020019081526020016000206000018290806001815401808255809150506001900390600052602060002001600090919091909150556000803373ffffffffffffffffffffffffffffffffffffffff1673ffffffffffffffffffffffffffffffffffffffff1681526020019081526020016000206001018190806001815401808255809150506001900390600052602060002001600090919091909150557f0e366e3272829e9ef39b2eb53b2bf4164de0e6b02a34042ff713a0fb95a30ca33383836040516101b1939291906104db565b60405180910390a15050565b6000803373ffffffffffffffffffffffffffffffffffffffff1673ffffffffffffffffffffffffffffffffffffffff1681526020019081526020016000206002018290806001815401808255809150506001900390600052602060002001600090919091909150556000803373ffffffffffffffffffffffffffffffffffffffff1673ffffffffffffffffffffffffffffffffffffffff1681526020019081526020016000206003018190806001815401808255809150506001900390600052602060002001600090919091909150557f348e8e29dbc3f762332ef6886c4cffe6af5cb928aec5f194a6fa79477dac12d73383836040516102c0939291906104db565b60405180910390a15050565b6000806000905060005b6000803373ffffffffffffffffffffffffffffffffffffffff1673ffffffffffffffffffffffffffffffffffffffff168152602001908152602001600020600101805490508110156103a357836000803373ffffffffffffffffffffffffffffffffffffffff1673ffffffffffffffffffffffffffffffffffffffff168152602001908152602001600020600101828154811061037657610375610512565b5b9060005260206000200154141561039057600191506103a3565b808061039b9061057a565b9150506102d6565b5080915050919050565b600080fd5b6000819050919050565b6103c5816103b2565b81146103d057600080fd5b50565b6000813590506103e2816103bc565b92915050565b600080604083850312156103ff576103fe6103ad565b5b600061040d858286016103d3565b925050602061041e858286016103d3565b9150509250929050565b60006020828403121561043e5761043d6103ad565b5b600061044c848285016103d3565b91505092915050565b60008115159050919050565b61046a81610455565b82525050565b60006020820190506104856000830184610461565b92915050565b600073ffffffffffffffffffffffffffffffffffffffff82169050919050565b60006104b68261048b565b9050919050565b6104c6816104ab565b82525050565b6104d5816103b2565b82525050565b60006060820190506104f060008301866104bd565b6104fd60208301856104cc565b61050a60408301846104cc565b949350505050565b7f4e487b7100000000000000000000000000000000000000000000000000000000600052603260045260246000fd5b7f4e487b7100000000000000000000000000000000000000000000000000000000600052601160045260246000fd5b6000819050919050565b600061058582610570565b91507fffffffffffffffffffffffffffffffffffffffffffffffffffffffffffffffff8214156105b8576105b7610541565b5b60018201905091905056fea26469706673582212204271f18d34d5c8563d8f8643e3d667839977c358454530c06e432b3a777a79e964736f6c634300080a0033",
  "immutableReferences": {},
  "source": "// SPDX-License-Identifier: MIT\npragma solidity >=0.4.22 <0.9.0;\n\ncontract im{\n    /*struct TdataHash {\n        bytes32 messageTdataHash; //store request store training data message hash\n    }\n    struct MdataHash {\n        bytes32 messageMdataHash; //store request store model data message hash\n    }*/\n    struct user {\n        //mapping(bytes32 => TdataHash) TdataHashes; //key is training data IPFS hash\n        //mapping(bytes32 => MdataHash) MdataHashes; //key is model data IPFS hash\n        bytes32[] messageTdataHash; //store store training data request message hash\n        bytes32[] IPFStdataHash; //training data IPFS hash\n        bytes32[] messageMdataHash; //store store model data request message hash\n        bytes32[] IPFSmdataHash; //model data IPFS hash\n    }\n\n    mapping (address => user) Users;\n\n    event TdataHashStored(address _Addr, bytes32 _msghash, bytes32 _tdipfshash); //td=training data\n    event MdataHashStored(address _Addr, bytes32 _msghash, bytes32 _mdipfshash); //md=model data\n\n    function StoreTdataHash(bytes32 _messageTdataHash, bytes32 _IPFStdataHash) public {\n        Users[msg.sender].messageTdataHash.push(_messageTdataHash);\n        Users[msg.sender].IPFStdataHash.push(_IPFStdataHash);\n\n        emit TdataHashStored(msg.sender, _messageTdataHash, _IPFStdataHash);\n    }\n\n    function StoreMdataHash(bytes32 _messageMdataHash, bytes32 _IPFSmdataHash) public {\n        Users[msg.sender].messageMdataHash.push(_messageMdataHash);\n        Users[msg.sender].IPFSmdataHash.push(_IPFSmdataHash);\n\n        emit MdataHashStored(msg.sender, _messageMdataHash, _IPFSmdataHash);\n    }\n\n    function checkIPFStdataHash(bytes32 _IPFStdataHash) public view returns(bool) {\n        bool check = false;\n        for(uint i=0; i < Users[msg.sender].IPFStdataHash.length; i++) {\n            if(Users[msg.sender].IPFStdataHash[i] == _IPFStdataHash) {\n                check = true;\n                break;\n            }\n        }\n        return check;\n    }\n}",
  "sourcePath": "/home/lizz/MyProjects/di-architecture/contracts/im.sol",
  "compiler": {
    "name": "solc",
    "version": "0.8.10+commit.fc410830.Emscripten.clang"
  },
  "schemaVersion": "3.4.3",
  "updatedAt": "2022-01-07T11:50:19.655Z",
  "networkType": "ethereum",
  "devdoc": {
    "kind": "dev",
    "methods": {},
    "version": 1
  },
  "userdoc": {
    "kind": "user",
    "methods": {},
    "version": 1
  }
}